{
  "contractName": "BeyondArt",
  "abi": [
    {
      "inputs": [],
      "stateMutability": "nonpayable",
      "type": "constructor"
    },
    {
      "anonymous": false,
      "inputs": [
        {
          "indexed": true,
          "internalType": "address",
          "name": "_owner",
          "type": "address"
        },
        {
          "indexed": true,
          "internalType": "address",
          "name": "_approved",
          "type": "address"
        },
        {
          "indexed": true,
          "internalType": "uint256",
          "name": "_tokenId",
          "type": "uint256"
        }
      ],
      "name": "Approval",
      "type": "event"
    },
    {
      "anonymous": false,
      "inputs": [
        {
          "indexed": true,
          "internalType": "address",
          "name": "_owner",
          "type": "address"
        },
        {
          "indexed": true,
          "internalType": "address",
          "name": "_operator",
          "type": "address"
        },
        {
          "indexed": false,
          "internalType": "bool",
          "name": "_approved",
          "type": "bool"
        }
      ],
      "name": "ApprovalForAll",
      "type": "event"
    },
    {
      "anonymous": false,
      "inputs": [
        {
          "indexed": true,
          "internalType": "address",
          "name": "_from",
          "type": "address"
        },
        {
          "indexed": true,
          "internalType": "address",
          "name": "_to",
          "type": "address"
        },
        {
          "indexed": true,
          "internalType": "uint256",
          "name": "_tokenId",
          "type": "uint256"
        }
      ],
      "name": "Transfer",
      "type": "event"
    },
    {
      "inputs": [
        {
          "internalType": "address",
          "name": "_to",
          "type": "address"
        },
        {
          "internalType": "uint256",
          "name": "tokenId",
          "type": "uint256"
        }
      ],
      "name": "approve",
      "outputs": [],
      "stateMutability": "nonpayable",
      "type": "function"
    },
    {
      "inputs": [
        {
          "internalType": "address",
          "name": "_owner",
          "type": "address"
        }
      ],
      "name": "balanceOf",
      "outputs": [
        {
          "internalType": "uint256",
          "name": "",
          "type": "uint256"
        }
      ],
      "stateMutability": "view",
      "type": "function",
      "constant": true
    },
    {
      "inputs": [
        {
          "internalType": "uint256",
          "name": "",
          "type": "uint256"
        }
      ],
      "name": "beyondArt",
      "outputs": [
        {
          "internalType": "string",
          "name": "",
          "type": "string"
        }
      ],
      "stateMutability": "view",
      "type": "function",
      "constant": true
    },
    {
      "inputs": [],
      "name": "name",
      "outputs": [
        {
          "internalType": "string",
          "name": "",
          "type": "string"
        }
      ],
      "stateMutability": "view",
      "type": "function",
      "constant": true
    },
    {
      "inputs": [
        {
          "internalType": "uint256",
          "name": "_tokenId",
          "type": "uint256"
        }
      ],
      "name": "ownerOf",
      "outputs": [
        {
          "internalType": "address",
          "name": "",
          "type": "address"
        }
      ],
      "stateMutability": "view",
      "type": "function",
      "constant": true
    },
    {
      "inputs": [
        {
          "internalType": "bytes4",
          "name": "interfaceID",
          "type": "bytes4"
        }
      ],
      "name": "supportsInterface",
      "outputs": [
        {
          "internalType": "bool",
          "name": "",
          "type": "bool"
        }
      ],
      "stateMutability": "view",
      "type": "function",
      "constant": true
    },
    {
      "inputs": [],
      "name": "symbol",
      "outputs": [
        {
          "internalType": "string",
          "name": "",
          "type": "string"
        }
      ],
      "stateMutability": "view",
      "type": "function",
      "constant": true
    },
    {
      "inputs": [
        {
          "internalType": "uint256",
          "name": "index",
          "type": "uint256"
        }
      ],
      "name": "tokenByIndex",
      "outputs": [
        {
          "internalType": "uint256",
          "name": "",
          "type": "uint256"
        }
      ],
      "stateMutability": "view",
      "type": "function",
      "constant": true
    },
    {
      "inputs": [
        {
          "internalType": "address",
          "name": "owner",
          "type": "address"
        },
        {
          "internalType": "uint256",
          "name": "index",
          "type": "uint256"
        }
      ],
      "name": "tokenOfOwnerByIndex",
      "outputs": [
        {
          "internalType": "uint256",
          "name": "",
          "type": "uint256"
        }
      ],
      "stateMutability": "view",
      "type": "function",
      "constant": true
    },
    {
      "inputs": [],
      "name": "totalSupply",
      "outputs": [
        {
          "internalType": "uint256",
          "name": "",
          "type": "uint256"
        }
      ],
      "stateMutability": "view",
      "type": "function",
      "constant": true
    },
    {
      "inputs": [
        {
          "internalType": "address",
          "name": "_from",
          "type": "address"
        },
        {
          "internalType": "address",
          "name": "_to",
          "type": "address"
        },
        {
          "internalType": "uint256",
          "name": "_tokenId",
          "type": "uint256"
        }
      ],
      "name": "transferFrom",
      "outputs": [],
      "stateMutability": "nonpayable",
      "type": "function"
    },
    {
      "inputs": [
        {
          "internalType": "string",
          "name": "_beyondArt",
          "type": "string"
        }
      ],
      "name": "mint",
      "outputs": [],
      "stateMutability": "nonpayable",
      "type": "function"
    }
  ],
  "bytecode": "0x60806040523480156200001157600080fd5b506040518060400160405280600981526020017f4265796f6e6441727400000000000000000000000000000000000000000000008152506040518060400160405280600281526020017f62410000000000000000000000000000000000000000000000000000000000008152508181620000b17f66ebd5702407ce38efcbe2f88d8dcc292e35c3ca682c8fe6b7dd7c7dc967c33d6200022a60201b60201c565b620001047f13b182f4c0e5b2efbac0efe6cf6d756c8b89f4b79c5707a043ed9ea740574ee97f7feaf19471f34a12a7eaf32d5f3090aa2260ea8624dc8a138e74e0bf0f623076186200022a60201b60201c565b81600190805190602001906200011c92919062000301565b5080600290805190602001906200013592919062000301565b505050620001ad7f22c82707ba960a14c7592ffb6b8cfaa073fed0048a84cc7fa41f6b5bd8e7f2e47f3a6eb71757dfc6e784c1459d26270140c2c147d95ca985c80026fc5301c3eca17f8a7e378434598edc36d108689a030cbc9d7d465de4f74c71bae1028eed6a881b18186200022a60201b60201c565b620002227f8230223f691b981717299fae9549350a0d894555723531f02108b1f522c1a7977f6da5e1284143cdd2d15038a59bde3be031250f00291d64494c12d967b3a4e0c37fc53637662700e6c65104059db8bba34439e0c32483ab7c34e3ccae52c739549518186200022a60201b60201c565b505062000498565b63ffffffff60e01b817bffffffffffffffffffffffffffffffffffffffffffffffffffffffff19160362000295576040517f08c379a00000000000000000000000000000000000000000000000000000000081526004016200028c9062000412565b60405180910390fd5b6001600080837bffffffffffffffffffffffffffffffffffffffffffffffffffffffff19167bffffffffffffffffffffffffffffffffffffffffffffffffffffffff1916815260200190815260200160002060006101000a81548160ff02191690831515021790555050565b8280546200030f9062000463565b90600052602060002090601f0160209004810192826200033357600085556200037f565b82601f106200034e57805160ff19168380011785556200037f565b828001600101855582156200037f579182015b828111156200037e57825182559160200191906001019062000361565b5b5090506200038e919062000392565b5090565b5b80821115620003ad57600081600090555060010162000393565b5090565b600082825260208201905092915050565b7f696e74657266616365207265717565737420697320696e76616c696400000000600082015250565b6000620003fa601c83620003b1565b91506200040782620003c2565b602082019050919050565b600060208201905081810360008301526200042d81620003eb565b9050919050565b7f4e487b7100000000000000000000000000000000000000000000000000000000600052602260045260246000fd5b600060028204905060018216806200047c57607f821691505b60208210810362000492576200049162000434565b5b50919050565b611cfd80620004a86000396000f3fe608060405234801561001057600080fd5b50600436106100b45760003560e01c80634f6ccce7116100715780634f6ccce71461018d5780636352211e146101bd57806370a08231146101ed57806395d89b411461021d578063d85d3d271461023b578063f5405eaf14610257576100b4565b806301ffc9a7146100b957806306fdde03146100e9578063095ea7b31461010757806318160ddd1461012357806323b872dd146101415780632f745c591461015d575b600080fd5b6100d360048036038101906100ce9190611159565b610287565b6040516100e091906111a1565b60405180910390f35b6100f16102ee565b6040516100fe9190611255565b60405180910390f35b610121600480360381019061011c919061130b565b610380565b005b61012b61051b565b604051610138919061135a565b60405180910390f35b61015b60048036038101906101569190611375565b610528565b005b6101776004803603810190610172919061130b565b61054b565b604051610184919061135a565b60405180910390f35b6101a760048036038101906101a291906113c8565b6105fb565b6040516101b4919061135a565b60405180910390f35b6101d760048036038101906101d291906113c8565b61066c565b6040516101e49190611404565b60405180910390f35b6102076004803603810190610202919061141f565b61071d565b604051610214919061135a565b60405180910390f35b6102256107d4565b6040516102329190611255565b60405180910390f35b61025560048036038101906102509190611581565b610866565b005b610271600480360381019061026c91906113c8565b610969565b60405161027e9190611255565b60405180910390f35b6000806000837bffffffffffffffffffffffffffffffffffffffffffffffffffffffff19167bffffffffffffffffffffffffffffffffffffffffffffffffffffffff1916815260200190815260200160002060009054906101000a900460ff169050919050565b6060600180546102fd906115f9565b80601f0160208091040260200160405190810160405280929190818152602001828054610329906115f9565b80156103765780601f1061034b57610100808354040283529160200191610376565b820191906000526020600020905b81548152906001019060200180831161035957829003601f168201915b5050505050905090565b600061038b8261066c565b90508073ffffffffffffffffffffffffffffffffffffffff168373ffffffffffffffffffffffffffffffffffffffff16036103fb576040517f08c379a00000000000000000000000000000000000000000000000000000000081526004016103f290611676565b60405180910390fd5b8073ffffffffffffffffffffffffffffffffffffffff163373ffffffffffffffffffffffffffffffffffffffff1614610469576040517f08c379a000000000000000000000000000000000000000000000000000000000815260040161046090611708565b60405180910390fd5b826005600084815260200190815260200160002060006101000a81548173ffffffffffffffffffffffffffffffffffffffff021916908373ffffffffffffffffffffffffffffffffffffffff160217905550818373ffffffffffffffffffffffffffffffffffffffff168273ffffffffffffffffffffffffffffffffffffffff167f8c5be1e5ebec7d5bd14f71427d1e84f3dd0314c0f7b2291e5b200ac8c7c3b92560405160405180910390a4505050565b6000600680549050905090565b6105323382610a15565b61053b57600080fd5b610546838383610aa4565b505050565b60006105568361071d565b8210610597576040517f08c379a000000000000000000000000000000000000000000000000000000000815260040161058e90611774565b60405180910390fd5b600860008473ffffffffffffffffffffffffffffffffffffffff1673ffffffffffffffffffffffffffffffffffffffff16815260200190815260200160002082815481106105e8576105e7611794565b5b9060005260206000200154905092915050565b600061060561051b565b8210610646576040517f08c379a000000000000000000000000000000000000000000000000000000000815260040161063d9061180f565b60405180910390fd5b6006828154811061065a57610659611794565b5b90600052602060002001549050919050565b6000806003600084815260200190815260200160002060009054906101000a900473ffffffffffffffffffffffffffffffffffffffff169050600073ffffffffffffffffffffffffffffffffffffffff168173ffffffffffffffffffffffffffffffffffffffff1603610714576040517f08c379a000000000000000000000000000000000000000000000000000000000815260040161070b906118a1565b60405180910390fd5b80915050919050565b60008073ffffffffffffffffffffffffffffffffffffffff168273ffffffffffffffffffffffffffffffffffffffff160361078d576040517f08c379a0000000000000000000000000000000000000000000000000000000008152600401610784906118a1565b60405180910390fd5b600460008373ffffffffffffffffffffffffffffffffffffffff1673ffffffffffffffffffffffffffffffffffffffff168152602001908152602001600020549050919050565b6060600280546107e3906115f9565b80601f016020809104026020016040519081016040528092919081815260200182805461080f906115f9565b801561085c5780601f106108315761010080835404028352916020019161085c565b820191906000526020600020905b81548152906001019060200180831161083f57829003601f168201915b5050505050905090565b600b8160405161087691906118fd565b908152602001604051809103902060009054906101000a900460ff16156108d2576040517f08c379a00000000000000000000000000000000000000000000000000000000081526004016108c990611960565b60405180910390fd5b600a8190806001815401808255809150506001900390600052602060002001600090919091909150908051906020019061090d92919061104a565b5060006001600a8054905061092291906119af565b905061092e3382610ce9565b6001600b8360405161094091906118fd565b908152602001604051809103902060006101000a81548160ff0219169083151502179055505050565b600a818154811061097957600080fd5b906000526020600020016000915090508054610994906115f9565b80601f01602080910402602001604051908101604052809291908181526020018280546109c0906115f9565b8015610a0d5780601f106109e257610100808354040283529160200191610a0d565b820191906000526020600020905b8154815290600101906020018083116109f057829003601f168201915b505050505081565b6000610a2082610d0a565b610a5f576040517f08c379a0000000000000000000000000000000000000000000000000000000008152600401610a5690611a2f565b60405180910390fd5b6000610a6a8361066c565b90508073ffffffffffffffffffffffffffffffffffffffff168473ffffffffffffffffffffffffffffffffffffffff161491505092915050565b600073ffffffffffffffffffffffffffffffffffffffff168273ffffffffffffffffffffffffffffffffffffffff1603610b13576040517f08c379a0000000000000000000000000000000000000000000000000000000008152600401610b0a90611ac1565b60405180910390fd5b8273ffffffffffffffffffffffffffffffffffffffff16610b338261066c565b73ffffffffffffffffffffffffffffffffffffffff1614610b89576040517f08c379a0000000000000000000000000000000000000000000000000000000008152600401610b8090611b79565b60405180910390fd5b6001600460008573ffffffffffffffffffffffffffffffffffffffff1673ffffffffffffffffffffffffffffffffffffffff1681526020019081526020016000206000828254610bd991906119af565b925050819055506001600460008473ffffffffffffffffffffffffffffffffffffffff1673ffffffffffffffffffffffffffffffffffffffff1681526020019081526020016000206000828254610c309190611b99565b92505081905550816003600083815260200190815260200160002060006101000a81548173ffffffffffffffffffffffffffffffffffffffff021916908373ffffffffffffffffffffffffffffffffffffffff160217905550808273ffffffffffffffffffffffffffffffffffffffff168473ffffffffffffffffffffffffffffffffffffffff167fddf252ad1be2c89b69c2b068fc378daa952ba7f163c4a11628f55a4df523b3ef60405160405180910390a4505050565b610cf38282610d7c565b610cfc81610f3d565b610d068282610f86565b5050565b6000806003600084815260200190815260200160002060009054906101000a900473ffffffffffffffffffffffffffffffffffffffff169050600073ffffffffffffffffffffffffffffffffffffffff168173ffffffffffffffffffffffffffffffffffffffff161415915050919050565b600073ffffffffffffffffffffffffffffffffffffffff168273ffffffffffffffffffffffffffffffffffffffff1603610deb576040517f08c379a0000000000000000000000000000000000000000000000000000000008152600401610de290611c3b565b60405180910390fd5b610df481610d0a565b15610e34576040517f08c379a0000000000000000000000000000000000000000000000000000000008152600401610e2b90611ca7565b60405180910390fd5b816003600083815260200190815260200160002060006101000a81548173ffffffffffffffffffffffffffffffffffffffff021916908373ffffffffffffffffffffffffffffffffffffffff1602179055506001600460008473ffffffffffffffffffffffffffffffffffffffff1673ffffffffffffffffffffffffffffffffffffffff1681526020019081526020016000206000828254610ed69190611b99565b92505081905550808273ffffffffffffffffffffffffffffffffffffffff16600073ffffffffffffffffffffffffffffffffffffffff167fddf252ad1be2c89b69c2b068fc378daa952ba7f163c4a11628f55a4df523b3ef60405160405180910390a45050565b6006805490506007600083815260200190815260200160002081905550600681908060018154018082558091505060019003906000526020600020016000909190919091505550565b600860008373ffffffffffffffffffffffffffffffffffffffff1673ffffffffffffffffffffffffffffffffffffffff168152602001908152602001600020805490506009600083815260200190815260200160002081905550600860008373ffffffffffffffffffffffffffffffffffffffff1673ffffffffffffffffffffffffffffffffffffffff1681526020019081526020016000208190806001815401808255809150506001900390600052602060002001600090919091909150555050565b828054611056906115f9565b90600052602060002090601f01602090048101928261107857600085556110bf565b82601f1061109157805160ff19168380011785556110bf565b828001600101855582156110bf579182015b828111156110be5782518255916020019190600101906110a3565b5b5090506110cc91906110d0565b5090565b5b808211156110e95760008160009055506001016110d1565b5090565b6000604051905090565b600080fd5b600080fd5b60007fffffffff0000000000000000000000000000000000000000000000000000000082169050919050565b61113681611101565b811461114157600080fd5b50565b6000813590506111538161112d565b92915050565b60006020828403121561116f5761116e6110f7565b5b600061117d84828501611144565b91505092915050565b60008115159050919050565b61119b81611186565b82525050565b60006020820190506111b66000830184611192565b92915050565b600081519050919050565b600082825260208201905092915050565b60005b838110156111f65780820151818401526020810190506111db565b83811115611205576000848401525b50505050565b6000601f19601f8301169050919050565b6000611227826111bc565b61123181856111c7565b93506112418185602086016111d8565b61124a8161120b565b840191505092915050565b6000602082019050818103600083015261126f818461121c565b905092915050565b600073ffffffffffffffffffffffffffffffffffffffff82169050919050565b60006112a282611277565b9050919050565b6112b281611297565b81146112bd57600080fd5b50565b6000813590506112cf816112a9565b92915050565b6000819050919050565b6112e8816112d5565b81146112f357600080fd5b50565b600081359050611305816112df565b92915050565b60008060408385031215611322576113216110f7565b5b6000611330858286016112c0565b9250506020611341858286016112f6565b9150509250929050565b611354816112d5565b82525050565b600060208201905061136f600083018461134b565b92915050565b60008060006060848603121561138e5761138d6110f7565b5b600061139c868287016112c0565b93505060206113ad868287016112c0565b92505060406113be868287016112f6565b9150509250925092565b6000602082840312156113de576113dd6110f7565b5b60006113ec848285016112f6565b91505092915050565b6113fe81611297565b82525050565b600060208201905061141960008301846113f5565b92915050565b600060208284031215611435576114346110f7565b5b6000611443848285016112c0565b91505092915050565b600080fd5b600080fd5b7f4e487b7100000000000000000000000000000000000000000000000000000000600052604160045260246000fd5b61148e8261120b565b810181811067ffffffffffffffff821117156114ad576114ac611456565b5b80604052505050565b60006114c06110ed565b90506114cc8282611485565b919050565b600067ffffffffffffffff8211156114ec576114eb611456565b5b6114f58261120b565b9050602081019050919050565b82818337600083830152505050565b600061152461151f846114d1565b6114b6565b9050828152602081018484840111156115405761153f611451565b5b61154b848285611502565b509392505050565b600082601f8301126115685761156761144c565b5b8135611578848260208601611511565b91505092915050565b600060208284031215611597576115966110f7565b5b600082013567ffffffffffffffff8111156115b5576115b46110fc565b5b6115c184828501611553565b91505092915050565b7f4e487b7100000000000000000000000000000000000000000000000000000000600052602260045260246000fd5b6000600282049050600182168061161157607f821691505b602082108103611624576116236115ca565b5b50919050565b7f6572726f7220617070726f76616c2074746f2063757272656e74206f776e6572600082015250565b60006116606020836111c7565b915061166b8261162a565b602082019050919050565b6000602082019050818103600083015261168f81611653565b9050919050565b7f63757272656e742063616c6c6572206973206e6f7420746865206f776e65722060008201527f6f662074686520746f6b656e0000000000000000000000000000000000000000602082015250565b60006116f2602c836111c7565b91506116fd82611696565b604082019050919050565b60006020820190508181036000830152611721816116e5565b9050919050565b7f6f776e657220696e646578206973206f7574206f6620626f6e64730000000000600082015250565b600061175e601b836111c7565b915061176982611728565b602082019050919050565b6000602082019050818103600083015261178d81611751565b9050919050565b7f4e487b7100000000000000000000000000000000000000000000000000000000600052603260045260246000fd5b7f676c6f62616c20696e646578206973206f7574206f6620626f756e6473000000600082015250565b60006117f9601d836111c7565b9150611804826117c3565b602082019050919050565b60006020820190508181036000830152611828816117ec565b9050919050565b7f6f776e657220717565727920666f72206e6f6e2d6578697374656e7420746f6b60008201527f656e730000000000000000000000000000000000000000000000000000000000602082015250565b600061188b6023836111c7565b91506118968261182f565b604082019050919050565b600060208201905081810360008301526118ba8161187e565b9050919050565b600081905092915050565b60006118d7826111bc565b6118e181856118c1565b93506118f18185602086016111d8565b80840191505092915050565b600061190982846118cc565b915081905092915050565b7f6572726f72202d206265796f6e6461727420616c726561647920657869737473600082015250565b600061194a6020836111c7565b915061195582611914565b602082019050919050565b600060208201905081810360008301526119798161193d565b9050919050565b7f4e487b7100000000000000000000000000000000000000000000000000000000600052601160045260246000fd5b60006119ba826112d5565b91506119c5836112d5565b9250828210156119d8576119d7611980565b5b828203905092915050565b7f746f6b656e20646f6573206e6f74206578697374000000000000000000000000600082015250565b6000611a196014836111c7565b9150611a24826119e3565b602082019050919050565b60006020820190508181036000830152611a4881611a0c565b9050919050565b7f6572726f72202d2020455243373231207472616e7366657220746f207468652060008201527f6164647265737300000000000000000000000000000000000000000000000000602082015250565b6000611aab6027836111c7565b9150611ab682611a4f565b604082019050919050565b60006020820190508181036000830152611ada81611a9e565b9050919050565b7f747279696e6720746f207472616e73666572206120746f6b656e20746f20746860008201527f652061646472657373207468617420646f6573206e6f74206f776e656420627960208201527f20746865206f776e657220000000000000000000000000000000000000000000604082015250565b6000611b63604b836111c7565b9150611b6e82611ae1565b606082019050919050565b60006020820190508181036000830152611b9281611b56565b9050919050565b6000611ba4826112d5565b9150611baf836112d5565b9250827fffffffffffffffffffffffffffffffffffffffffffffffffffffffffffffffff03821115611be457611be3611980565b5b828201905092915050565b7f4552433732313a206d696e74696e6720746f207a65726f206164647265737300600082015250565b6000611c25601f836111c7565b9150611c3082611bef565b602082019050919050565b60006020820190508181036000830152611c5481611c18565b9050919050565b7f4552433732313a20746f6b656e20616c7265616479206d61696e7461696e6564600082015250565b6000611c916020836111c7565b9150611c9c82611c5b565b602082019050919050565b60006020820190508181036000830152611cc081611c84565b905091905056fea2646970667358221220e0f23584afc2bc93cc0466231cc104fb9e4b2f2e9e7f5331b971b9a2f41b766f64736f6c634300080d0033",
  "immutableReferences": {},
  "source": "//SPDX-License-Identifier: MIT\r\npragma solidity >=0.4.22 <0.9.0;\r\n\r\nimport './ERC721Connector.sol';\r\n\r\ncontract BeyondArt is ERC721Connector {\r\n\r\n    string [] public beyondArt;\r\n\r\n    mapping(string => bool) _beyondArtExists;\r\n\r\n    function mint(string memory _beyondArt) public {\r\n        require(!_beyondArtExists [_beyondArt], 'error - beyondart already exists');\r\n        beyondArt.push(_beyondArt);\r\n        uint _id = beyondArt.length - 1;\r\n        _mint(msg.sender, _id);\r\n        _beyondArtExists[_beyondArt] = true;\r\n    \r\n    }\r\n\r\n    constructor() ERC721Connector('BeyondArt', 'bA') {}\r\n}\r\n",
  "sourcePath": "F:\\beyond-art\\src\\contracts\\BeyondArt.sol",
  "compiler": {
    "name": "solc",
    "version": "0.8.13+commit.abaa5c0e.Emscripten.clang"
  },
  "schemaVersion": "3.4.6",
  "updatedAt": "2022-07-14T09:01:08.057Z",
  "networkType": "ethereum",
  "devdoc": {
    "kind": "dev",
    "methods": {},
    "version": 1
  },
  "userdoc": {
    "kind": "user",
    "methods": {},
    "version": 1
  }
}